:080000000C946A000C9400004E
:100008000C9400000C9400000C9400000C94000068
:100018000C9400000C9400000C9400000C94000058
:100028000C9400000C9400000C9400000C94000048
:100038000C9400000C9400000C9400000C94000038
:100048000C9400000C9400000C9400001027E803A6
:1000580064000A00010000100001100001004F7048
:1000680065726174696F6E20737461747573004F83
:1000780056455220564F4C544147452000554E4452
:10008800455220564F4C5441474520004E4F524D43
:10009800414C204F5045524154494F4E000080C0BA
:1000A8001100600166000E007101770011007F01E8
:1000B80066000F009001850011009F016600110085
:1000C800B00194000200C101A6000000F894EE27D8
:1000D800ECBBF1E0FBBFEBBFE5BF8DE0A2E0BB27C7
:1000E800ED938A95E9F780E094E0A0E6ED93019717
:1000F800E9F7E8EAF0E085919591009761F0A5911C
:10010800B59105901590BF01F00105900D920197EA
:10011800E1F7FB01F0CFEFE5EDBFE4E0EEBFC0E6AD
:10012800D1E00C949700A0E1B0D082D0E1E0E7BB29
:10013800E0E0E1BB859B02C0879B01C003C0A4E649
:10014800B0E0ECD0859B02C0879B01C009C070D08D
:10015800C09AC7D0A0E6B1E089D0A1E7B1E0C5D088
:10016800879B02C0859B01C003C0A4E6B0E0D6D03F
:10017800879B02C0859B01C009C0C09A59D0B1D0E5
:10018800AFE7B1E073D0A0E9B1E0AFD0859902C084
:10019800879B01C009C0C0984BD0A3D0AFE9B1E09C
:1001A80065D0A0EBB1E062D0C5CFFFCF1A931A2F6C
:1001B80014FF02C0AB9A01C0AB9815FF02C0AC9AFD
:1001C80001C0AC9816FF02C0AD9A01C0AD9817FFE8
:1001D80002C0AE9A01C0AE988BE18A95F1F7AA9A4F
:1001E8008BE18A95F1F7AA988BE18A95F1F777C0A8
:1001F800AA93A881DBDFE881E295E883A881D6DFAE
:1002080088EC90E00197F1F7219608951A930A93E4
:100218001A2F0A81E12FF0E0EF53FE4FE081E00F43
:10022800AE2FE6DF502E412E1981088123960895BE
:10023800A2E05FD0ACE0DCDFA1E05BD0E0E04E2ED6
:100248005E2E08951A931A2F1A3011F0571440F0A1
:10025800E0E0EA934394A42DD9DF1A3009F43FC0B3
:100268005394A89AA12FC4DFA89839C04DD09D01F6
:10027800D9012F5F3F4FEC911E2FE03019F0A12FCD
:10028800E1DFF6CF46D0249608951A931A2FA39A41
:10029800A49AA59AA69AA29AA09AA19AAA98A89866
:1002A800A998712EE12FE058E093C301E12FE054A3
:1002B800E093C401A4E1B0E031D01FD01ED01DD01E
:1002C800A0E274DF80E991E00197F1F7A8E290DFFE
:1002D800A4E08EDFA5E88CDFA6E08ADFA9DF19910C
:1002E8000895E0E0EA93A0E091CFC0DFA4EFB1E089
:1002F80015C07EDFA3E0B0E011C0A0E357DF80E9BE
:1003080091E00197F1F708953A932A931A930A9383
:1003180008953B812A81198108810895109639F042
:10032800A89580EA9FE00197F1F71197C9F708951A
:00000001FF
